S00F00005072654C6162352E73726563AA
S11300000C9434000C9451000C9451000C94510045
S11300100C9451000C9451000C9451000C94510018
S11300200C9451000C9451000C9451000C94510008
S11300300C9451000C9451000C9451000C945100F8
S11300400C9409010C9451000C9451000C9451002F
S11300500C9451000C9461000C9451000C945100C8
S11300600C9451000C94510011241FBECFEFD8E022
S1130070DEBFCDBF11E0A0E0B1E0EEEFF2E002C0E0
S113008005900D92A430B107D9F721E0A4E0B1E0C6
S113009001C01D92A730B207E1F70E9406010C943B
S11300A07D010C94000084B1886084B914BC15BC33
S11300B085B5816085BDEEE6F0E080818160808356
S11300C008951F920F920FB60F9211242F933F930E
S11300D04F935F936F937F938F939F93AF93BF934C
S11300E0EF93FF9380910601811121C0ECE7F0E0CA
S11300F0108281E68083809106018F5F80930601E0
S11301002091790030E0AAE0BFE00E946E012FEF59
S113011030E040E050E00E944C01C90180559B4F03
S113012090930101809300010E94390134C0813011
S113013009F5ECE7F0E0108282E680838091060105
S11301408F5F809306012091790030E0AAE0BFE040
S11301500E946E012FEF30E040E050E00E944C011D
S1130160C90180559B4F90930301809302010E9423
S1130170470111C0823079F4ECE7F0E0108283E6A5
S113018080831092060180917900809304018AE6AD
S11301908A95F1F700C0EAE7F0E08081806480830B
S11301A0FF91EF91BF91AF919F918F917F916F914B
S11301B05F914F913F912F910F900FBE0F901F9021
S11301C01895ECE7F0E0108281E68083EAE7F0E03E
S11301D0108280818B688083808180648083109208
S11301E006010895F8940E94E1000E9429010E94EA
S11301F03E010E94530087B1877F87B987B18B7F07
S113020087B987B18D7F87B9789408950E94F200E9
S1130210FFCF1F920F920FB60F9211248F939F93CB
S1130220809105018F5F80930501909104019817D7
S113023020F485B1886085B905C0891718F485B1A3
S1130240877F85B99F918F910F900FBE0F901F905C
S1130250189584B1826084B982E8809380008AE131
S11302608093810080E49CE99093870080938600CA
S113027008959093890080938800089584B18460E0
S113028084B9E0E8F0E080818062808308959093EF
S11302908B0080938A000895A1E21A2EAA1BBB1B2F
S11302A0FD010DC0AA1FBB1FEE1FFF1FA217B3073E
S11302B0E407F50720F0A21BB30BE40BF50B661F54
S11302C0771F881F991F1A9469F760957095809518
S11302D090959B01AC01BD01CF010895A29FB0018F
S11302E0B39FC001A39F700D811D1124911DB29F66
S11102F0700D811D1124911D0895F894FFCF07
S10702FE6400640030
S9030000FC
