:100000000C9434000C9451000C9451000C94510049
:100010000C9451000C9451000C9451000C9451001C
:100020000C9451000C9451000C9451000C9451000C
:100030000C9451000C9451000C9451000C945100FC
:100040000C9451000C9451000C9451000C945100EC
:100050000C9451000C9453000C9451000C945100DA
:100060000C9451000C94510011241FBECFEFD8E026
:10007000DEBFCDBF11E0A0E0B1E0E6EDF1E002C0EF
:1000800005900D92A030B107D9F721E0A0E0B1E0D2
:1000900001C01D92A130B207E1F70E94AC000C94A0
:1000A000E9000C9400001F920F920FB60F921124DA
:1000B0002F933F934F935F936F937F938F939F9370
:1000C000AF93BF93EF93FF938091790080930001EA
:1000D0004091000180EA9FE0489F9001499F300DC8
:1000E0001124A1E8B0E80E94DA00880F892F881F48
:1000F000990B919580559B4F0E94C900EAE7F0E06B
:10010000808180648083FF91EF91BF91AF919F9137
:100110008F917F916F915F914F913F912F910F90B0
:100120000FBE0F901F901895ECE7F0E010828081D1
:1001300086668083EAE7F0E0108280818B688083A6
:100140008081806480830895F89480E880936100C2
:100150000E949400789408950E94A4000E94B30025
:100160000E949400FFCF84B1826084B982E88093BA
:1001700080008AE18093810080E49CE9909387006D
:100180008093860088EE93E09093890080938800A6
:100190000895883E23E0920710F488EE93E08938B2
:1001A00023E1920710F088E893E19093890080930F
:1001B00088000895A29FB001B39FC001A39F700D56
:1001C000811D1124911DB29F700D811D1124911D5F
:0601D0000895F894FFCF32
:00000001FF
